{
  "contractName": "SimpleWallet",
  "abi": [
    {
      "constant": true,
      "inputs": [],
      "name": "owner",
      "outputs": [
        {
          "name": "",
          "type": "address"
        }
      ],
      "payable": false,
      "stateMutability": "view",
      "type": "function"
    },
    {
      "constant": true,
      "inputs": [
        {
          "name": "",
          "type": "uint256"
        }
      ],
      "name": "statement",
      "outputs": [
        {
          "name": "trxAddress",
          "type": "address"
        },
        {
          "name": "amount",
          "type": "uint256"
        },
        {
          "name": "mode",
          "type": "string"
        },
        {
          "name": "block",
          "type": "uint256"
        }
      ],
      "payable": false,
      "stateMutability": "view",
      "type": "function"
    },
    {
      "constant": true,
      "inputs": [],
      "name": "withdrawalAllowed",
      "outputs": [
        {
          "name": "",
          "type": "bool"
        }
      ],
      "payable": false,
      "stateMutability": "view",
      "type": "function"
    },
    {
      "constant": true,
      "inputs": [],
      "name": "balance",
      "outputs": [
        {
          "name": "",
          "type": "uint256"
        }
      ],
      "payable": false,
      "stateMutability": "view",
      "type": "function"
    },
    {
      "inputs": [],
      "payable": false,
      "stateMutability": "nonpayable",
      "type": "constructor"
    },
    {
      "payable": true,
      "stateMutability": "payable",
      "type": "fallback"
    },
    {
      "anonymous": false,
      "inputs": [
        {
          "indexed": false,
          "name": "_sender",
          "type": "address"
        },
        {
          "indexed": false,
          "name": "_amount",
          "type": "uint256"
        },
        {
          "indexed": false,
          "name": "_newBalance",
          "type": "uint256"
        }
      ],
      "name": "DEPOSIT",
      "type": "event"
    },
    {
      "anonymous": false,
      "inputs": [
        {
          "indexed": false,
          "name": "_sender",
          "type": "address"
        },
        {
          "indexed": false,
          "name": "_beneficiary",
          "type": "address"
        },
        {
          "indexed": false,
          "name": "_amount",
          "type": "uint256"
        }
      ],
      "name": "WITHDRAWAL",
      "type": "event"
    },
    {
      "anonymous": false,
      "inputs": [
        {
          "indexed": false,
          "name": "_trxAddress",
          "type": "address"
        },
        {
          "indexed": false,
          "name": "_amount",
          "type": "uint256"
        },
        {
          "indexed": false,
          "name": "mode",
          "type": "string"
        },
        {
          "indexed": false,
          "name": "blockNumber",
          "type": "uint256"
        }
      ],
      "name": "TRANSACTION",
      "type": "event"
    },
    {
      "anonymous": false,
      "inputs": [
        {
          "indexed": false,
          "name": "_owner",
          "type": "address"
        }
      ],
      "name": "GET_OWNER",
      "type": "event"
    },
    {
      "constant": false,
      "inputs": [
        {
          "name": "_amount",
          "type": "uint256"
        },
        {
          "name": "_receiver",
          "type": "address"
        }
      ],
      "name": "sendFunds",
      "outputs": [],
      "payable": false,
      "stateMutability": "nonpayable",
      "type": "function"
    },
    {
      "constant": false,
      "inputs": [
        {
          "name": "_member",
          "type": "address"
        }
      ],
      "name": "allowAccessToWallet",
      "outputs": [],
      "payable": false,
      "stateMutability": "nonpayable",
      "type": "function"
    },
    {
      "constant": false,
      "inputs": [
        {
          "name": "_member",
          "type": "address"
        }
      ],
      "name": "disAllowAccessToWallet",
      "outputs": [],
      "payable": false,
      "stateMutability": "nonpayable",
      "type": "function"
    },
    {
      "constant": false,
      "inputs": [],
      "name": "checkAccess",
      "outputs": [],
      "payable": false,
      "stateMutability": "nonpayable",
      "type": "function"
    },
    {
      "constant": false,
      "inputs": [],
      "name": "getBalance",
      "outputs": [
        {
          "name": "",
          "type": "uint256"
        }
      ],
      "payable": false,
      "stateMutability": "nonpayable",
      "type": "function"
    },
    {
      "constant": false,
      "inputs": [
        {
          "name": "_candidate",
          "type": "address"
        }
      ],
      "name": "isAllowedToSend",
      "outputs": [
        {
          "name": "",
          "type": "bool"
        }
      ],
      "payable": false,
      "stateMutability": "nonpayable",
      "type": "function"
    },
    {
      "constant": false,
      "inputs": [],
      "name": "killWallet",
      "outputs": [],
      "payable": false,
      "stateMutability": "nonpayable",
      "type": "function"
    },
    {
      "constant": false,
      "inputs": [],
      "name": "getOwner",
      "outputs": [],
      "payable": false,
      "stateMutability": "nonpayable",
      "type": "function"
    },
    {
      "constant": false,
      "inputs": [],
      "name": "getTransactions",
      "outputs": [],
      "payable": false,
      "stateMutability": "nonpayable",
      "type": "function"
    }
  ],
  "bytecode": "0x608060405234801561001057600080fd5b5032600260006101000a81548173ffffffffffffffffffffffffffffffffffffffff021916908373ffffffffffffffffffffffffffffffffffffffff160217905550600160046000600260009054906101000a900473ffffffffffffffffffffffffffffffffffffffff1673ffffffffffffffffffffffffffffffffffffffff1673ffffffffffffffffffffffffffffffffffffffff16815260200190815260200160002060006101000a81548160ff0219169083151502179055506114e3806100db6000396000f3fe6080604052600436106100c5576000357c0100000000000000000000000000000000000000000000000000000000900463ffffffff1680630bc605ad1461026d57806312065fe0146102d657806317b35af41461030157806383920e9014610352578063893d20e8146103695780638da5cb5b146103805780639fa5dfe0146103d7578063a1d19361146104cc578063b2686774146104fb578063b67ba1b514610556578063b69ef8a81461056d578063ecb1013514610598578063ed08ef45146105af575b346001600082825401925050819055506100dd6113d3565b6080604051908101604052803373ffffffffffffffffffffffffffffffffffffffff1681526020013481526020016040805190810160405280600781526020017f4465706f7369740000000000000000000000000000000000000000000000000081525081526020014381525090506003819080600181540180825580915050906001820390600052602060002090600402016000909192909190915060008201518160000160006101000a81548173ffffffffffffffffffffffffffffffffffffffff021916908373ffffffffffffffffffffffffffffffffffffffff1602179055506020820151816001015560408201518160020190805190602001906101e7929190611412565b50606082015181600301555050507f9a576c6a069dd11816a552b58ed50be1c0eaed4dfb90413bd0ace2f81ed433333334600154604051808473ffffffffffffffffffffffffffffffffffffffff1673ffffffffffffffffffffffffffffffffffffffff168152602001838152602001828152602001935050505060405180910390a150005b34801561027957600080fd5b506102bc6004803603602081101561029057600080fd5b81019080803573ffffffffffffffffffffffffffffffffffffffff169060200190929190505050610600565b604051808215151515815260200191505060405180910390f35b3480156102e257600080fd5b506102eb610756565b6040518082815260200191505060405180910390f35b34801561030d57600080fd5b506103506004803603602081101561032457600080fd5b81019080803573ffffffffffffffffffffffffffffffffffffffff16906020019092919050505061084b565b005b34801561035e57600080fd5b50610367610991565b005b34801561037557600080fd5b5061037e610c3b565b005b34801561038c57600080fd5b50610395610cc2565b604051808273ffffffffffffffffffffffffffffffffffffffff1673ffffffffffffffffffffffffffffffffffffffff16815260200191505060405180910390f35b3480156103e357600080fd5b50610410600480360360208110156103fa57600080fd5b8101908080359060200190929190505050610ce8565b604051808573ffffffffffffffffffffffffffffffffffffffff1673ffffffffffffffffffffffffffffffffffffffff16815260200184815260200180602001838152602001828103825284818151815260200191508051906020019080838360005b8381101561048e578082015181840152602081019050610473565b50505050905090810190601f1680156104bb5780820380516001836020036101000a031916815260200191505b509550505050505060405180910390f35b3480156104d857600080fd5b506104e1610ddf565b604051808215151515815260200191505060405180910390f35b34801561050757600080fd5b506105546004803603604081101561051e57600080fd5b8101908080359060200190929190803573ffffffffffffffffffffffffffffffffffffffff169060200190929190505050610df1565b005b34801561056257600080fd5b5061056b6110fa565b005b34801561057957600080fd5b50610582611220565b6040518082815260200191505060405180910390f35b3480156105a457600080fd5b506105ad611226565b005b3480156105bb57600080fd5b506105fe600480360360208110156105d257600080fd5b81019080803573ffffffffffffffffffffffffffffffffffffffff16906020019092919050505061128d565b005b6000600260009054906101000a900473ffffffffffffffffffffffffffffffffffffffff1673ffffffffffffffffffffffffffffffffffffffff163373ffffffffffffffffffffffffffffffffffffffff161415156106ed576040517f08c379a000000000000000000000000000000000000000000000000000000000815260040180806020018281038252602c8152602001807f596f7520617265206e6f7420617574686f72697a656420666f7220746869732081526020017f7472616e73616374696f6e2e000000000000000000000000000000000000000081525060400191505060405180910390fd5b600260009054906101000a900473ffffffffffffffffffffffffffffffffffffffff1673ffffffffffffffffffffffffffffffffffffffff168273ffffffffffffffffffffffffffffffffffffffff16141561074c5760019050610751565b600090505b919050565b6000600260009054906101000a900473ffffffffffffffffffffffffffffffffffffffff1673ffffffffffffffffffffffffffffffffffffffff163373ffffffffffffffffffffffffffffffffffffffff16141515610843576040517f08c379a000000000000000000000000000000000000000000000000000000000815260040180806020018281038252602c8152602001807f596f7520617265206e6f7420617574686f72697a656420666f7220746869732081526020017f7472616e73616374696f6e2e000000000000000000000000000000000000000081525060400191505060405180910390fd5b600154905090565b600260009054906101000a900473ffffffffffffffffffffffffffffffffffffffff1673ffffffffffffffffffffffffffffffffffffffff163373ffffffffffffffffffffffffffffffffffffffff16141515610936576040517f08c379a000000000000000000000000000000000000000000000000000000000815260040180806020018281038252602c8152602001807f596f7520617265206e6f7420617574686f72697a656420666f7220746869732081526020017f7472616e73616374696f6e2e000000000000000000000000000000000000000081525060400191505060405180910390fd5b6001600460008373ffffffffffffffffffffffffffffffffffffffff1673ffffffffffffffffffffffffffffffffffffffff16815260200190815260200160002060006101000a81548160ff02191690831515021790555050565b600260009054906101000a900473ffffffffffffffffffffffffffffffffffffffff1673ffffffffffffffffffffffffffffffffffffffff163373ffffffffffffffffffffffffffffffffffffffff16141515610a7c576040517f08c379a000000000000000000000000000000000000000000000000000000000815260040180806020018281038252602c8152602001807f596f7520617265206e6f7420617574686f72697a656420666f7220746869732081526020017f7472616e73616374696f6e2e000000000000000000000000000000000000000081525060400191505060405180910390fd5b60008090505b600380549050811015610c38577f203147e25886d4b3a2552797d96edef68f013d3950af6ead016a36f0ab461b3b600382815481101515610abf57fe5b906000526020600020906004020160000160009054906101000a900473ffffffffffffffffffffffffffffffffffffffff16600383815481101515610b0057fe5b906000526020600020906004020160010154600384815481101515610b2157fe5b9060005260206000209060040201600201600385815481101515610b4157fe5b906000526020600020906004020160030154604051808573ffffffffffffffffffffffffffffffffffffffff1673ffffffffffffffffffffffffffffffffffffffff16815260200184815260200180602001838152602001828103825284818154600181600116156101000203166002900481526020019150805460018160011615610100020316600290048015610c1a5780601f10610bef57610100808354040283529160200191610c1a565b820191906000526020600020905b815481529060010190602001808311610bfd57829003601f168201915b50509550505050505060405180910390a18080600101915050610a82565b50565b7f12a6db7c761b3db46f4d294c9ecdbd12a458bd02e8c75ba59f6f1ef6996bacdb600260009054906101000a900473ffffffffffffffffffffffffffffffffffffffff16604051808273ffffffffffffffffffffffffffffffffffffffff1673ffffffffffffffffffffffffffffffffffffffff16815260200191505060405180910390a1565b600260009054906101000a900473ffffffffffffffffffffffffffffffffffffffff1681565b600381815481101515610cf757fe5b90600052602060002090600402016000915090508060000160009054906101000a900473ffffffffffffffffffffffffffffffffffffffff1690806001015490806002018054600181600116156101000203166002900480601f016020809104026020016040519081016040528092919081815260200182805460018160011615610100020316600290048015610dcf5780601f10610da457610100808354040283529160200191610dcf565b820191906000526020600020905b815481529060010190602001808311610db257829003601f168201915b5050505050908060030154905084565b6000809054906101000a900460ff1681565b60011515600460003373ffffffffffffffffffffffffffffffffffffffff1673ffffffffffffffffffffffffffffffffffffffff16815260200190815260200160002060009054906101000a900460ff161515141515610edf576040517f08c379a000000000000000000000000000000000000000000000000000000000815260040180806020018281038252602f8152602001807f596f7520617265206e6f7420616c6c6f77656420746f2077697468647261772081526020017f66756e64732e20476f204177617921000000000000000000000000000000000081525060400191505060405180910390fd5b7fa99b92949d52810b60a282250a088d4e9ce834cc91bd58037ef646135a7a9457338284604051808473ffffffffffffffffffffffffffffffffffffffff1673ffffffffffffffffffffffffffffffffffffffff1681526020018373ffffffffffffffffffffffffffffffffffffffff1673ffffffffffffffffffffffffffffffffffffffff168152602001828152602001935050505060405180910390a18073ffffffffffffffffffffffffffffffffffffffff166108fc839081150290604051600060405180830381858888f19350505050158015610fc4573d6000803e3d6000fd5b5081600160008282540392505081905550610fdd6113d3565b6080604051908101604052808373ffffffffffffffffffffffffffffffffffffffff1681526020018481526020016040805190810160405280600a81526020017f5769746864726177616c0000000000000000000000000000000000000000000081525081526020014381525090506003819080600181540180825580915050906001820390600052602060002090600402016000909192909190915060008201518160000160006101000a81548173ffffffffffffffffffffffffffffffffffffffff021916908373ffffffffffffffffffffffffffffffffffffffff1602179055506020820151816001015560408201518160020190805190602001906110e7929190611412565b5060608201518160030155505050505050565b600260009054906101000a900473ffffffffffffffffffffffffffffffffffffffff1673ffffffffffffffffffffffffffffffffffffffff163373ffffffffffffffffffffffffffffffffffffffff161415156111e5576040517f08c379a000000000000000000000000000000000000000000000000000000000815260040180806020018281038252602c8152602001807f596f7520617265206e6f7420617574686f72697a656420666f7220746869732081526020017f7472616e73616374696f6e2e000000000000000000000000000000000000000081525060400191505060405180910390fd5b600260009054906101000a900473ffffffffffffffffffffffffffffffffffffffff1673ffffffffffffffffffffffffffffffffffffffff16ff5b60015481565b600460003373ffffffffffffffffffffffffffffffffffffffff1673ffffffffffffffffffffffffffffffffffffffff16815260200190815260200160002060009054906101000a900460ff166000806101000a81548160ff021916908315150217905550565b600260009054906101000a900473ffffffffffffffffffffffffffffffffffffffff1673ffffffffffffffffffffffffffffffffffffffff163373ffffffffffffffffffffffffffffffffffffffff16141515611378576040517f08c379a000000000000000000000000000000000000000000000000000000000815260040180806020018281038252602c8152602001807f596f7520617265206e6f7420617574686f72697a656420666f7220746869732081526020017f7472616e73616374696f6e2e000000000000000000000000000000000000000081525060400191505060405180910390fd5b6000600460008373ffffffffffffffffffffffffffffffffffffffff1673ffffffffffffffffffffffffffffffffffffffff16815260200190815260200160002060006101000a81548160ff02191690831515021790555050565b608060405190810160405280600073ffffffffffffffffffffffffffffffffffffffff1681526020016000815260200160608152602001600081525090565b828054600181600116156101000203166002900490600052602060002090601f016020900481019282601f1061145357805160ff1916838001178555611481565b82800160010185558215611481579182015b82811115611480578251825591602001919060010190611465565b5b50905061148e9190611492565b5090565b6114b491905b808211156114b0576000816000905550600101611498565b5090565b9056fea165627a7a72305820ed02df1fc398d7039a10deb91ed5ad9479c71030e4497e0078f098abf403fb650029",
  "source": "pragma solidity ^0.5.0;\r\n\r\n\r\n/**\r\n * \r\n * SimpleWalletFactory is a factory for creating wallets that user can use according to\r\n * there own will.\r\n * \r\n */\r\n\r\ncontract SimpleWalletFactory{\r\n    \r\n    SimpleWallet wallet;\r\n    address appOwner ;\r\n    uint public balance;\r\n    \r\n    address payable private  walletAddress ;\r\n    \r\n    event GET_WALLET_DETAILS(address payable[] wallets);\r\n    \r\n    event GET_CREATED_WALLET_ADDRESS(address payable createdWallet);\r\n    \r\n    /**\r\n     * Mapping to easily fetch the list of Wallets a member is attached to\r\n     * @param   {key}   Key is the address of a member\r\n     * @param   {value} Value is the array of wallets a member is part of. \r\n     * \r\n     */\r\n    mapping(address=>address payable[] ) public walletDetails;\r\n    \r\n    \r\n    /**\r\n     * \r\n     *  Mapping to keep the Key values pair to check if the user is \r\n        member of a particular wallet.\r\n     *\r\n     */\r\n    \r\n    constructor() public{\r\n        appOwner = msg.sender;\r\n    }\r\n    \r\n    function() external payable{\r\n        balance = msg.value;\r\n    }\r\n    \r\n    \r\n    function deploySimpleWallet() public{\r\n        wallet =  new SimpleWallet();\r\n         walletAddress = address(wallet);\r\n        \r\n        // //Add message sender to the list\r\n        walletDetails[msg.sender].push(walletAddress);\r\n        \r\n        emit GET_CREATED_WALLET_ADDRESS(walletAddress);\r\n    }\r\n    \r\n    function getUserWallets(address _userAddress) public{\r\n        require(msg.sender == _userAddress,'You can only see your wallet Details');\r\n        emit GET_WALLET_DETAILS(walletDetails[_userAddress]);\r\n    }\r\n    \r\n}\r\n\r\ncontract SimpleWallet{\r\n    \r\n    \r\n    struct WalletStatement{\r\n        address trxAddress;\r\n        uint amount;\r\n        string mode;\r\n        uint block;\r\n    }\r\n    \r\n    bool public withdrawalAllowed;   \r\n    uint public balance;\r\n    address payable public owner;\r\n    \r\n    WalletStatement[] public statement;\r\n    \r\n    constructor() public{\r\n       // owner = msg.sender;\r\n        owner = tx.origin;\r\n        //allowAccessToWallet(owner);\r\n        walletMembers[owner] = true;\r\n    }\r\n    \r\n\r\n    modifier onlyOwner{\r\n        require(msg.sender == owner,\"You are not authorized for this transaction.\");\r\n        _;\r\n    }\r\n    \r\n    modifier onlyAuthorized{\r\n        require(walletMembers[msg.sender] == true, \"You are not allowed to withdraw funds. Go Away!\");\r\n        _;\r\n    }\r\n    \r\n    mapping(address => bool) walletMembers;\r\n    \r\n    event DEPOSIT(address _sender, uint _amount, uint _newBalance);\r\n    \r\n    event WITHDRAWAL(address _sender, address _beneficiary, uint _amount);\r\n    \r\n    event TRANSACTION(address _trxAddress, uint _amount, string mode, uint blockNumber);\r\n    \r\n    event GET_OWNER(address _owner);\r\n    \r\n    /**\r\n     * fallback function which always fires if only Transaction is being sent to the Wallet.\r\n     */\r\n    function() external payable{\r\n        balance+=msg.value;\r\n        WalletStatement memory thisStatement = WalletStatement({\r\n            trxAddress : msg.sender,\r\n            amount: msg.value,\r\n            mode:'Deposit',\r\n            block : block.number\r\n        });\r\n        \r\n        statement.push(thisStatement);\r\n        emit DEPOSIT(msg.sender, msg.value ,balance);\r\n    }\r\n    \r\n    \r\n    /**\r\n     * sendFunds allow authorized user to send funds from one account to the other.\r\n     */\r\n    function sendFunds(uint _amount, address payable _receiver) public onlyAuthorized{\r\n        //Check if the sender is allowed to send amount to anyone\r\n        // require(walletMembers[msg.sender] = true);\r\n        \r\n        //only authorized user will be able to send the amount.\r\n        emit WITHDRAWAL(msg.sender, _receiver, _amount);\r\n        \r\n        _receiver.transfer(_amount);\r\n        balance-= _amount;\r\n        \r\n        WalletStatement memory thisStatement = WalletStatement({\r\n            trxAddress : _receiver,\r\n            amount: _amount,\r\n            mode:'Withdrawal',\r\n            block : block.number\r\n        });\r\n        \r\n        statement.push(thisStatement);\r\n    }\r\n    \r\n    \r\n    function allowAccessToWallet(address _member) public onlyOwner{\r\n        walletMembers[_member] = true;\r\n    }\r\n    \r\n    \r\n    function disAllowAccessToWallet(address _member) public onlyOwner{\r\n        walletMembers[_member] = false;\r\n    }\r\n    \r\n    function checkAccess() public{\r\n        withdrawalAllowed =  walletMembers[msg.sender];\r\n    }\r\n    \r\n    function getBalance() public onlyOwner returns(uint){\r\n        return balance;\r\n    }\r\n    \r\n    function isAllowedToSend(address _candidate) public onlyOwner returns(bool) {\r\n        if(_candidate == owner){\r\n            return true;\r\n        }else{\r\n            return false;\r\n        }\r\n    }\r\n    \r\n    function killWallet() public onlyOwner{\r\n        selfdestruct(owner);\r\n    }\r\n    \r\n    function getOwner() public{\r\n        emit GET_OWNER(owner);\r\n    }\r\n    \r\n    function getTransactions() public onlyOwner{\r\n        for(uint counter=0; counter<statement.length; counter++){\r\n            emit TRANSACTION(statement[counter].trxAddress, statement[counter].amount,statement[counter].mode, statement[counter].block);\r\n        }\r\n    }\r\n    \r\n}",
  "sourcePath": "C:/Users/E9968575/OneDrive - Eaton/Innovation/Experiments/Prepaid-Ethereum-Wallet/contracts/SimpleWallet.sol",
  "compiler": {
    "name": "solc",
    "version": "0.5.0+commit.1d4f565a.Emscripten.clang"
  },
  "schemaVersion": "3.0.9",
  "updatedAt": "2019-05-20T13:32:19.328Z",
  "devdoc": {
    "methods": {}
  },
  "userdoc": {
    "methods": {
      "sendFunds(uint256,address)": {
        "notice": "sendFunds allow authorized user to send funds from one account to the other.\r"
      }
    }
  }
}