{
  "contractName": "SimpleWalletFactory",
  "abi": [
    {
      "constant": true,
      "inputs": [
        {
          "name": "",
          "type": "address"
        },
        {
          "name": "",
          "type": "uint256"
        }
      ],
      "name": "walletDetails",
      "outputs": [
        {
          "name": "",
          "type": "address"
        }
      ],
      "payable": false,
      "stateMutability": "view",
      "type": "function"
    },
    {
      "constant": true,
      "inputs": [],
      "name": "balance",
      "outputs": [
        {
          "name": "",
          "type": "uint256"
        }
      ],
      "payable": false,
      "stateMutability": "view",
      "type": "function"
    },
    {
      "inputs": [],
      "payable": false,
      "stateMutability": "nonpayable",
      "type": "constructor"
    },
    {
      "payable": true,
      "stateMutability": "payable",
      "type": "fallback"
    },
    {
      "anonymous": false,
      "inputs": [
        {
          "indexed": false,
          "name": "wallets",
          "type": "address[]"
        }
      ],
      "name": "GET_WALLET_DETAILS",
      "type": "event"
    },
    {
      "anonymous": false,
      "inputs": [
        {
          "indexed": false,
          "name": "createdWallet",
          "type": "address"
        }
      ],
      "name": "GET_CREATED_WALLET_ADDRESS",
      "type": "event"
    },
    {
      "constant": false,
      "inputs": [],
      "name": "deploySimpleWallet",
      "outputs": [],
      "payable": false,
      "stateMutability": "nonpayable",
      "type": "function"
    },
    {
      "constant": false,
      "inputs": [
        {
          "name": "_userAddress",
          "type": "address"
        }
      ],
      "name": "getUserWallets",
      "outputs": [],
      "payable": false,
      "stateMutability": "nonpayable",
      "type": "function"
    }
  ],
  "bytecode": "0x608060405234801561001057600080fd5b5033600160006101000a81548173ffffffffffffffffffffffffffffffffffffffff021916908373ffffffffffffffffffffffffffffffffffffffff160217905550611bc7806100616000396000f3fe608060405260043610610062576000357c0100000000000000000000000000000000000000000000000000000000900463ffffffff1680630ab126bf1461006b5780633013379f146101065780636cbae1571461011d578063b69ef8a81461016e575b34600281905550005b34801561007757600080fd5b506100c46004803603604081101561008e57600080fd5b81019080803573ffffffffffffffffffffffffffffffffffffffff16906020019092919080359060200190929190505050610199565b604051808273ffffffffffffffffffffffffffffffffffffffff1673ffffffffffffffffffffffffffffffffffffffff16815260200191505060405180910390f35b34801561011257600080fd5b5061011b6101e6565b005b34801561012957600080fd5b5061016c6004803603602081101561014057600080fd5b81019080803573ffffffffffffffffffffffffffffffffffffffff1690602001909291905050506103f8565b005b34801561017a57600080fd5b506101836105ad565b6040518082815260200191505060405180910390f35b6004602052816000526040600020818154811015156101b457fe5b906000526020600020016000915091509054906101000a900473ffffffffffffffffffffffffffffffffffffffff1681565b6101ee6105b3565b604051809103906000f08015801561020a573d6000803e3d6000fd5b506000806101000a81548173ffffffffffffffffffffffffffffffffffffffff021916908373ffffffffffffffffffffffffffffffffffffffff1602179055506000809054906101000a900473ffffffffffffffffffffffffffffffffffffffff16600360006101000a81548173ffffffffffffffffffffffffffffffffffffffff021916908373ffffffffffffffffffffffffffffffffffffffff160217905550600460003373ffffffffffffffffffffffffffffffffffffffff1673ffffffffffffffffffffffffffffffffffffffff168152602001908152602001600020600360009054906101000a900473ffffffffffffffffffffffffffffffffffffffff1690806001815401808255809150509060018203906000526020600020016000909192909190916101000a81548173ffffffffffffffffffffffffffffffffffffffff021916908373ffffffffffffffffffffffffffffffffffffffff160217905550507fa573797ef8776f7a299d648542bc27829c01bfa39195db6ef7e409c55d3675dc600360009054906101000a900473ffffffffffffffffffffffffffffffffffffffff16604051808273ffffffffffffffffffffffffffffffffffffffff1673ffffffffffffffffffffffffffffffffffffffff16815260200191505060405180910390a1565b8073ffffffffffffffffffffffffffffffffffffffff163373ffffffffffffffffffffffffffffffffffffffff161415156104c1576040517f08c379a00000000000000000000000000000000000000000000000000000000081526004018080602001828103825260248152602001807f596f752063616e206f6e6c792073656520796f75722077616c6c65742044657481526020017f61696c730000000000000000000000000000000000000000000000000000000081525060400191505060405180910390fd5b7ffa1f0056c33b152418522b5dc7e6f60d07adbf87bbea4f5582bfe2ec419fb925600460008373ffffffffffffffffffffffffffffffffffffffff1673ffffffffffffffffffffffffffffffffffffffff1681526020019081526020016000206040518080602001828103825283818154815260200191508054801561059c57602002820191906000526020600020905b8160009054906101000a900473ffffffffffffffffffffffffffffffffffffffff1673ffffffffffffffffffffffffffffffffffffffff1681526020019060010190808311610552575b50509250505060405180910390a150565b60025481565b6040516115d8806105c48339019056fe608060405234801561001057600080fd5b5032600260006101000a81548173ffffffffffffffffffffffffffffffffffffffff021916908373ffffffffffffffffffffffffffffffffffffffff160217905550600160046000600260009054906101000a900473ffffffffffffffffffffffffffffffffffffffff1673ffffffffffffffffffffffffffffffffffffffff1673ffffffffffffffffffffffffffffffffffffffff16815260200190815260200160002060006101000a81548160ff0219169083151502179055506114fd806100db6000396000f3fe6080604052600436106100d0576000357c0100000000000000000000000000000000000000000000000000000000900463ffffffff1680630bc605ad146100d557806312065fe01461013e57806317b35af41461016957806383920e90146101ba578063893d20e8146101d15780638da5cb5b146101e85780639fa5dfe01461023f578063a1d1936114610334578063b268677414610363578063b67ba1b5146103be578063b69ef8a8146103d5578063d0e30db014610400578063ecb101351461040a578063ed08ef4514610421575b600080fd5b3480156100e157600080fd5b50610124600480360360208110156100f857600080fd5b81019080803573ffffffffffffffffffffffffffffffffffffffff169060200190929190505050610472565b604051808215151515815260200191505060405180910390f35b34801561014a57600080fd5b506101536105c8565b6040518082815260200191505060405180910390f35b34801561017557600080fd5b506101b86004803603602081101561018c57600080fd5b81019080803573ffffffffffffffffffffffffffffffffffffffff1690602001909291905050506106bd565b005b3480156101c657600080fd5b506101cf610803565b005b3480156101dd57600080fd5b506101e6610aad565b005b3480156101f457600080fd5b506101fd610b34565b604051808273ffffffffffffffffffffffffffffffffffffffff1673ffffffffffffffffffffffffffffffffffffffff16815260200191505060405180910390f35b34801561024b57600080fd5b506102786004803603602081101561026257600080fd5b8101908080359060200190929190505050610b5a565b604051808573ffffffffffffffffffffffffffffffffffffffff1673ffffffffffffffffffffffffffffffffffffffff16815260200184815260200180602001838152602001828103825284818151815260200191508051906020019080838360005b838110156102f65780820151818401526020810190506102db565b50505050905090810190601f1680156103235780820380516001836020036101000a031916815260200191505b509550505050505060405180910390f35b34801561034057600080fd5b50610349610c51565b604051808215151515815260200191505060405180910390f35b34801561036f57600080fd5b506103bc6004803603604081101561038657600080fd5b8101908080359060200190929190803573ffffffffffffffffffffffffffffffffffffffff169060200190929190505050610c63565b005b3480156103ca57600080fd5b506103d3610f6c565b005b3480156103e157600080fd5b506103ea611092565b6040518082815260200191505060405180910390f35b610408611098565b005b34801561041657600080fd5b5061041f611240565b005b34801561042d57600080fd5b506104706004803603602081101561044457600080fd5b81019080803573ffffffffffffffffffffffffffffffffffffffff1690602001909291905050506112a7565b005b6000600260009054906101000a900473ffffffffffffffffffffffffffffffffffffffff1673ffffffffffffffffffffffffffffffffffffffff163373ffffffffffffffffffffffffffffffffffffffff1614151561055f576040517f08c379a000000000000000000000000000000000000000000000000000000000815260040180806020018281038252602c8152602001807f596f7520617265206e6f7420617574686f72697a656420666f7220746869732081526020017f7472616e73616374696f6e2e000000000000000000000000000000000000000081525060400191505060405180910390fd5b600260009054906101000a900473ffffffffffffffffffffffffffffffffffffffff1673ffffffffffffffffffffffffffffffffffffffff168273ffffffffffffffffffffffffffffffffffffffff1614156105be57600190506105c3565b600090505b919050565b6000600260009054906101000a900473ffffffffffffffffffffffffffffffffffffffff1673ffffffffffffffffffffffffffffffffffffffff163373ffffffffffffffffffffffffffffffffffffffff161415156106b5576040517f08c379a000000000000000000000000000000000000000000000000000000000815260040180806020018281038252602c8152602001807f596f7520617265206e6f7420617574686f72697a656420666f7220746869732081526020017f7472616e73616374696f6e2e000000000000000000000000000000000000000081525060400191505060405180910390fd5b600154905090565b600260009054906101000a900473ffffffffffffffffffffffffffffffffffffffff1673ffffffffffffffffffffffffffffffffffffffff163373ffffffffffffffffffffffffffffffffffffffff161415156107a8576040517f08c379a000000000000000000000000000000000000000000000000000000000815260040180806020018281038252602c8152602001807f596f7520617265206e6f7420617574686f72697a656420666f7220746869732081526020017f7472616e73616374696f6e2e000000000000000000000000000000000000000081525060400191505060405180910390fd5b6001600460008373ffffffffffffffffffffffffffffffffffffffff1673ffffffffffffffffffffffffffffffffffffffff16815260200190815260200160002060006101000a81548160ff02191690831515021790555050565b600260009054906101000a900473ffffffffffffffffffffffffffffffffffffffff1673ffffffffffffffffffffffffffffffffffffffff163373ffffffffffffffffffffffffffffffffffffffff161415156108ee576040517f08c379a000000000000000000000000000000000000000000000000000000000815260040180806020018281038252602c8152602001807f596f7520617265206e6f7420617574686f72697a656420666f7220746869732081526020017f7472616e73616374696f6e2e000000000000000000000000000000000000000081525060400191505060405180910390fd5b60008090505b600380549050811015610aaa577f203147e25886d4b3a2552797d96edef68f013d3950af6ead016a36f0ab461b3b60038281548110151561093157fe5b906000526020600020906004020160000160009054906101000a900473ffffffffffffffffffffffffffffffffffffffff1660038381548110151561097257fe5b90600052602060002090600402016001015460038481548110151561099357fe5b90600052602060002090600402016002016003858154811015156109b357fe5b906000526020600020906004020160030154604051808573ffffffffffffffffffffffffffffffffffffffff1673ffffffffffffffffffffffffffffffffffffffff16815260200184815260200180602001838152602001828103825284818154600181600116156101000203166002900481526020019150805460018160011615610100020316600290048015610a8c5780601f10610a6157610100808354040283529160200191610a8c565b820191906000526020600020905b815481529060010190602001808311610a6f57829003601f168201915b50509550505050505060405180910390a180806001019150506108f4565b50565b7f12a6db7c761b3db46f4d294c9ecdbd12a458bd02e8c75ba59f6f1ef6996bacdb600260009054906101000a900473ffffffffffffffffffffffffffffffffffffffff16604051808273ffffffffffffffffffffffffffffffffffffffff1673ffffffffffffffffffffffffffffffffffffffff16815260200191505060405180910390a1565b600260009054906101000a900473ffffffffffffffffffffffffffffffffffffffff1681565b600381815481101515610b6957fe5b90600052602060002090600402016000915090508060000160009054906101000a900473ffffffffffffffffffffffffffffffffffffffff1690806001015490806002018054600181600116156101000203166002900480601f016020809104026020016040519081016040528092919081815260200182805460018160011615610100020316600290048015610c415780601f10610c1657610100808354040283529160200191610c41565b820191906000526020600020905b815481529060010190602001808311610c2457829003601f168201915b5050505050908060030154905084565b6000809054906101000a900460ff1681565b60011515600460003373ffffffffffffffffffffffffffffffffffffffff1673ffffffffffffffffffffffffffffffffffffffff16815260200190815260200160002060009054906101000a900460ff161515141515610d51576040517f08c379a000000000000000000000000000000000000000000000000000000000815260040180806020018281038252602f8152602001807f596f7520617265206e6f7420616c6c6f77656420746f2077697468647261772081526020017f66756e64732e20476f204177617921000000000000000000000000000000000081525060400191505060405180910390fd5b7fa99b92949d52810b60a282250a088d4e9ce834cc91bd58037ef646135a7a9457338284604051808473ffffffffffffffffffffffffffffffffffffffff1673ffffffffffffffffffffffffffffffffffffffff1681526020018373ffffffffffffffffffffffffffffffffffffffff1673ffffffffffffffffffffffffffffffffffffffff168152602001828152602001935050505060405180910390a18073ffffffffffffffffffffffffffffffffffffffff166108fc839081150290604051600060405180830381858888f19350505050158015610e36573d6000803e3d6000fd5b5081600160008282540392505081905550610e4f6113ed565b6080604051908101604052808373ffffffffffffffffffffffffffffffffffffffff1681526020018481526020016040805190810160405280600a81526020017f5769746864726177616c0000000000000000000000000000000000000000000081525081526020014381525090506003819080600181540180825580915050906001820390600052602060002090600402016000909192909190915060008201518160000160006101000a81548173ffffffffffffffffffffffffffffffffffffffff021916908373ffffffffffffffffffffffffffffffffffffffff160217905550602082015181600101556040820151816002019080519060200190610f5992919061142c565b5060608201518160030155505050505050565b600260009054906101000a900473ffffffffffffffffffffffffffffffffffffffff1673ffffffffffffffffffffffffffffffffffffffff163373ffffffffffffffffffffffffffffffffffffffff16141515611057576040517f08c379a000000000000000000000000000000000000000000000000000000000815260040180806020018281038252602c8152602001807f596f7520617265206e6f7420617574686f72697a656420666f7220746869732081526020017f7472616e73616374696f6e2e000000000000000000000000000000000000000081525060400191505060405180910390fd5b600260009054906101000a900473ffffffffffffffffffffffffffffffffffffffff1673ffffffffffffffffffffffffffffffffffffffff16ff5b60015481565b346001600082825401925050819055506110b06113ed565b6080604051908101604052803373ffffffffffffffffffffffffffffffffffffffff1681526020013481526020016040805190810160405280600781526020017f4465706f7369740000000000000000000000000000000000000000000000000081525081526020014381525090506003819080600181540180825580915050906001820390600052602060002090600402016000909192909190915060008201518160000160006101000a81548173ffffffffffffffffffffffffffffffffffffffff021916908373ffffffffffffffffffffffffffffffffffffffff1602179055506020820151816001015560408201518160020190805190602001906111ba92919061142c565b50606082015181600301555050507f9a576c6a069dd11816a552b58ed50be1c0eaed4dfb90413bd0ace2f81ed433333334600154604051808473ffffffffffffffffffffffffffffffffffffffff1673ffffffffffffffffffffffffffffffffffffffff168152602001838152602001828152602001935050505060405180910390a150565b600460003373ffffffffffffffffffffffffffffffffffffffff1673ffffffffffffffffffffffffffffffffffffffff16815260200190815260200160002060009054906101000a900460ff166000806101000a81548160ff021916908315150217905550565b600260009054906101000a900473ffffffffffffffffffffffffffffffffffffffff1673ffffffffffffffffffffffffffffffffffffffff163373ffffffffffffffffffffffffffffffffffffffff16141515611392576040517f08c379a000000000000000000000000000000000000000000000000000000000815260040180806020018281038252602c8152602001807f596f7520617265206e6f7420617574686f72697a656420666f7220746869732081526020017f7472616e73616374696f6e2e000000000000000000000000000000000000000081525060400191505060405180910390fd5b6000600460008373ffffffffffffffffffffffffffffffffffffffff1673ffffffffffffffffffffffffffffffffffffffff16815260200190815260200160002060006101000a81548160ff02191690831515021790555050565b608060405190810160405280600073ffffffffffffffffffffffffffffffffffffffff1681526020016000815260200160608152602001600081525090565b828054600181600116156101000203166002900490600052602060002090601f016020900481019282601f1061146d57805160ff191683800117855561149b565b8280016001018555821561149b579182015b8281111561149a57825182559160200191906001019061147f565b5b5090506114a891906114ac565b5090565b6114ce91905b808211156114ca5760008160009055506001016114b2565b5090565b9056fea165627a7a7230582002aa3af2afbe15e213af86341c6a9007dcc3af4bfcd0f922b8ea203b9e16277c0029a165627a7a723058209bf3c5e0e240f58b778583ce7a8d6c13c50221aec63d638a14a29ade7ec97bd90029",
  "source": "pragma solidity ^0.5.0;\r\n\r\n\r\n/**\r\n * \r\n * SimpleWalletFactory is a factory for creating wallets that user can use according to\r\n * there own will.\r\n * \r\n */\r\n\r\ncontract SimpleWalletFactory{\r\n    \r\n    SimpleWallet wallet;\r\n    address appOwner ;\r\n    uint public balance;\r\n    \r\n    address payable private   walletAddress ;\r\n    \r\n    event GET_WALLET_DETAILS(address payable[] wallets);\r\n    \r\n    event GET_CREATED_WALLET_ADDRESS(address payable createdWallet);\r\n    \r\n    /**\r\n     * Mapping to easily fetch the list of Wallets a member is attached to\r\n     * @param   {key}   Key is the address of a member\r\n     * @param   {value} Value is the array of wallets a member is part of. \r\n     * \r\n     */\r\n    mapping(address=>address payable[] ) public walletDetails;\r\n    \r\n    \r\n    /**\r\n     * \r\n     *  Mapping to keep the Key values pair to check if the user is \r\n        member of a particular wallet.\r\n     *\r\n     */\r\n    \r\n    constructor() public{\r\n        appOwner = msg.sender;\r\n    }\r\n    \r\n    function() external payable{\r\n        balance = msg.value;\r\n    }\r\n    \r\n    \r\n    function deploySimpleWallet() public{\r\n        wallet =  new SimpleWallet();\r\n        walletAddress = address(uint160(address(wallet)));\r\n        \r\n        // //Add message sender to the list\r\n        walletDetails[msg.sender].push(walletAddress);\r\n        \r\n        emit GET_CREATED_WALLET_ADDRESS(walletAddress);\r\n    }\r\n    \r\n    function getUserWallets(address _userAddress) public{\r\n        require(msg.sender == _userAddress,'You can only see your wallet Details');\r\n        emit GET_WALLET_DETAILS(walletDetails[_userAddress]);\r\n    }\r\n    \r\n}\r\n\r\ncontract SimpleWallet{\r\n    \r\n    \r\n    struct WalletStatement{\r\n        address trxAddress;\r\n        uint amount;\r\n        string mode;\r\n        uint block;\r\n    }\r\n    \r\n    bool public withdrawalAllowed;   \r\n    uint public balance;\r\n    address payable public owner;\r\n    \r\n    WalletStatement[] public statement;\r\n    \r\n    constructor() public{\r\n       // owner = msg.sender;\r\n        owner = tx.origin;\r\n        //allowAccessToWallet(owner);\r\n        walletMembers[owner] = true;\r\n    }\r\n    \r\n\r\n    modifier onlyOwner{\r\n        require(msg.sender == owner,\"You are not authorized for this transaction.\");\r\n        _;\r\n    }\r\n    \r\n    modifier onlyAuthorized{\r\n        require(walletMembers[msg.sender] == true, \"You are not allowed to withdraw funds. Go Away!\");\r\n        _;\r\n    }\r\n    \r\n    mapping(address => bool) walletMembers;\r\n    \r\n    event DEPOSIT(address _sender, uint _amount, uint _newBalance);\r\n    \r\n    event WITHDRAWAL(address _sender, address _beneficiary, uint _amount);\r\n    \r\n    event TRANSACTION(address _trxAddress, uint _amount, string mode, uint blockNumber);\r\n    \r\n    event GET_OWNER(address _owner);\r\n    \r\n    /**\r\n     * fallback function which always fires if only Transaction is being sent to the Wallet.\r\n\r\n     Commmented out fallback function because :\r\n     a. fallback function should mostly accept ethers ONLY asSendTransaction is not sent with lot of gas.\r\n     b. The event it was emitting does not appear in SendTransaction logs. Only topic appear and i don't \r\n        know yet, how to implement topics.\r\n     */\r\n    // function() external payable{\r\n    //     balance+=msg.value;\r\n    //     WalletStatement memory thisStatement = WalletStatement({\r\n    //         trxAddress : msg.sender,\r\n    //         amount: msg.value,\r\n    //         mode:'Deposit',\r\n    //         block : block.number\r\n    //     });\r\n        \r\n    //     statement.push(thisStatement);\r\n    //     emit DEPOSIT(msg.sender, msg.value ,balance);\r\n    // }\r\n\r\n    function deposit() external payable {\r\n        balance+=msg.value;\r\n        WalletStatement memory thisStatement = WalletStatement({\r\n            trxAddress : msg.sender,\r\n            amount: msg.value,\r\n            mode:'Deposit',\r\n            block : block.number\r\n        });\r\n        \r\n        statement.push(thisStatement);\r\n        emit DEPOSIT(msg.sender, msg.value ,balance);\r\n    }\r\n    \r\n    \r\n    /**\r\n     * sendFunds allow authorized user to send funds from one account to the other.\r\n     */\r\n    function sendFunds(uint _amount, address payable _receiver) public onlyAuthorized{\r\n        //Check if the sender is allowed to send amount to anyone\r\n        // require(walletMembers[msg.sender] = true);\r\n        \r\n        //only authorized user will be able to send the amount.\r\n        emit WITHDRAWAL(msg.sender, _receiver, _amount);\r\n        \r\n        _receiver.transfer(_amount);\r\n        balance-= _amount;\r\n        \r\n        WalletStatement memory thisStatement = WalletStatement({\r\n            trxAddress : _receiver,\r\n            amount: _amount,\r\n            mode:'Withdrawal',\r\n            block : block.number\r\n        });\r\n        \r\n        statement.push(thisStatement);\r\n    }\r\n    \r\n    \r\n    function allowAccessToWallet(address _member) public onlyOwner{\r\n        walletMembers[_member] = true;\r\n    }\r\n    \r\n    \r\n    function disAllowAccessToWallet(address _member) public onlyOwner{\r\n        walletMembers[_member] = false;\r\n    }\r\n    \r\n    function checkAccess() public{\r\n        withdrawalAllowed =  walletMembers[msg.sender];\r\n    }\r\n    \r\n    function getBalance() public onlyOwner returns(uint){\r\n        return balance;\r\n    }\r\n    \r\n    function isAllowedToSend(address _candidate) public onlyOwner returns(bool) {\r\n        if(_candidate == owner){\r\n            return true;\r\n        }else{\r\n            return false;\r\n        }\r\n    }\r\n    \r\n    function killWallet() public onlyOwner{\r\n        selfdestruct(owner);\r\n    }\r\n    \r\n    function getOwner() public{\r\n        emit GET_OWNER(owner);\r\n    }\r\n    \r\n    function getTransactions() public onlyOwner{\r\n        for(uint counter=0; counter<statement.length; counter++){\r\n            emit TRANSACTION(statement[counter].trxAddress, statement[counter].amount,statement[counter].mode, statement[counter].block);\r\n        }\r\n    }\r\n    \r\n}",
  "sourcePath": "C:/Users/E9968575/OneDrive - Eaton/Innovation/Experiments/Prepaid-Ethereum-Wallet/contracts/SimpleWallet.sol",
  "compiler": {
    "name": "solc",
    "version": "0.5.0+commit.1d4f565a.Emscripten.clang"
  },
  "schemaVersion": "3.0.9",
  "updatedAt": "2019-06-13T08:15:46.504Z",
  "devdoc": {
    "methods": {}
  },
  "userdoc": {
    "methods": {
      "constructor": "\r Mapping to keep the Key values pair to check if the user is \r member of a particular wallet.\r      "
    },
    "notice": "\r SimpleWalletFactory is a factory for creating wallets that user can use according to\r there own will.\r \r"
  }
}