{
  "contractName": "SimpleWalletFactory",
  "abi": [
    {
      "constant": true,
      "inputs": [
        {
          "name": "",
          "type": "address"
        },
        {
          "name": "",
          "type": "uint256"
        }
      ],
      "name": "walletDetails",
      "outputs": [
        {
          "name": "",
          "type": "address"
        }
      ],
      "payable": false,
      "stateMutability": "view",
      "type": "function"
    },
    {
      "constant": true,
      "inputs": [],
      "name": "balance",
      "outputs": [
        {
          "name": "",
          "type": "uint256"
        }
      ],
      "payable": false,
      "stateMutability": "view",
      "type": "function"
    },
    {
      "inputs": [],
      "payable": false,
      "stateMutability": "nonpayable",
      "type": "constructor"
    },
    {
      "payable": true,
      "stateMutability": "payable",
      "type": "fallback"
    },
    {
      "anonymous": false,
      "inputs": [
        {
          "indexed": false,
          "name": "",
          "type": "address[]"
        }
      ],
      "name": "GET_WALLET_DETAILS",
      "type": "event"
    },
    {
      "anonymous": false,
      "inputs": [
        {
          "indexed": false,
          "name": "",
          "type": "address"
        }
      ],
      "name": "GET_CREATED_WALLET_ADDRESS",
      "type": "event"
    },
    {
      "constant": false,
      "inputs": [],
      "name": "deploySimpleWallet",
      "outputs": [],
      "payable": false,
      "stateMutability": "nonpayable",
      "type": "function"
    },
    {
      "constant": false,
      "inputs": [
        {
          "name": "_userAddress",
          "type": "address"
        }
      ],
      "name": "getUserWallets",
      "outputs": [],
      "payable": false,
      "stateMutability": "nonpayable",
      "type": "function"
    }
  ],
  "bytecode": "0x608060405234801561001057600080fd5b5033600160006101000a81548173ffffffffffffffffffffffffffffffffffffffff021916908373ffffffffffffffffffffffffffffffffffffffff160217905550611a34806100616000396000f3fe608060405260043610610062576000357c0100000000000000000000000000000000000000000000000000000000900463ffffffff1680630ab126bf1461006b5780633013379f146101065780636cbae1571461011d578063b69ef8a81461016e575b34600281905550005b34801561007757600080fd5b506100c46004803603604081101561008e57600080fd5b81019080803573ffffffffffffffffffffffffffffffffffffffff16906020019092919080359060200190929190505050610199565b604051808273ffffffffffffffffffffffffffffffffffffffff1673ffffffffffffffffffffffffffffffffffffffff16815260200191505060405180910390f35b34801561011257600080fd5b5061011b6101e6565b005b34801561012957600080fd5b5061016c6004803603602081101561014057600080fd5b81019080803573ffffffffffffffffffffffffffffffffffffffff169060200190929190505050610333565b005b34801561017a57600080fd5b506101836104e8565b6040518082815260200191505060405180910390f35b6004602052816000526040600020818154811015156101b457fe5b906000526020600020016000915091509054906101000a900473ffffffffffffffffffffffffffffffffffffffff1681565b6101ee6104ee565b604051809103906000f08015801561020a573d6000803e3d6000fd5b506000806101000a81548173ffffffffffffffffffffffffffffffffffffffff021916908373ffffffffffffffffffffffffffffffffffffffff1602179055506000809054906101000a900473ffffffffffffffffffffffffffffffffffffffff16600360006101000a81548173ffffffffffffffffffffffffffffffffffffffff021916908373ffffffffffffffffffffffffffffffffffffffff1602179055507fa573797ef8776f7a299d648542bc27829c01bfa39195db6ef7e409c55d3675dc600360009054906101000a900473ffffffffffffffffffffffffffffffffffffffff16604051808273ffffffffffffffffffffffffffffffffffffffff1673ffffffffffffffffffffffffffffffffffffffff16815260200191505060405180910390a1565b8073ffffffffffffffffffffffffffffffffffffffff163373ffffffffffffffffffffffffffffffffffffffff161415156103fc576040517f08c379a00000000000000000000000000000000000000000000000000000000081526004018080602001828103825260248152602001807f596f752063616e206f6e6c792073656520796f75722077616c6c65742044657481526020017f61696c730000000000000000000000000000000000000000000000000000000081525060400191505060405180910390fd5b7ffa1f0056c33b152418522b5dc7e6f60d07adbf87bbea4f5582bfe2ec419fb925600460008373ffffffffffffffffffffffffffffffffffffffff1673ffffffffffffffffffffffffffffffffffffffff168152602001908152602001600020604051808060200182810382528381815481526020019150805480156104d757602002820191906000526020600020905b8160009054906101000a900473ffffffffffffffffffffffffffffffffffffffff1673ffffffffffffffffffffffffffffffffffffffff168152602001906001019080831161048d575b50509250505060405180910390a150565b60025481565b60405161150a806104ff8339019056fe608060405234801561001057600080fd5b5032600260006101000a81548173ffffffffffffffffffffffffffffffffffffffff021916908373ffffffffffffffffffffffffffffffffffffffff160217905550600160046000600260009054906101000a900473ffffffffffffffffffffffffffffffffffffffff1673ffffffffffffffffffffffffffffffffffffffff1673ffffffffffffffffffffffffffffffffffffffff16815260200190815260200160002060006101000a81548160ff02191690831515021790555061142f806100db6000396000f3fe6080604052600436106100ba576000357c0100000000000000000000000000000000000000000000000000000000900463ffffffff1680630bc605ad1461025857806312065fe0146102c157806317b35af4146102ec57806383920e901461033d5780638da5cb5b146103545780639fa5dfe0146103ab578063a1d19361146104a0578063b2686774146104cf578063b67ba1b51461052a578063b69ef8a814610541578063ecb101351461056c578063ed08ef4514610583575b346001600082825401925050819055506100d261131f565b6080604051908101604052803373ffffffffffffffffffffffffffffffffffffffff1681526020013481526020016040805190810160405280600781526020017f4465706f7369740000000000000000000000000000000000000000000000000081525081526020014381525090506003819080600181540180825580915050906001820390600052602060002090600402016000909192909190915060008201518160000160006101000a81548173ffffffffffffffffffffffffffffffffffffffff021916908373ffffffffffffffffffffffffffffffffffffffff1602179055506020820151816001015560408201518160020190805190602001906101dc92919061135e565b50606082015181600301555050507f47e7ef24b3022e382e65b1298581281f0ae273ac4f76464efcf5b06769264f2f3334604051808373ffffffffffffffffffffffffffffffffffffffff1673ffffffffffffffffffffffffffffffffffffffff1681526020018281526020019250505060405180910390a150005b34801561026457600080fd5b506102a76004803603602081101561027b57600080fd5b81019080803573ffffffffffffffffffffffffffffffffffffffff1690602001909291905050506105d4565b604051808215151515815260200191505060405180910390f35b3480156102cd57600080fd5b506102d661072a565b6040518082815260200191505060405180910390f35b3480156102f857600080fd5b5061033b6004803603602081101561030f57600080fd5b81019080803573ffffffffffffffffffffffffffffffffffffffff16906020019092919050505061081f565b005b34801561034957600080fd5b50610352610965565b005b34801561036057600080fd5b50610369610c0f565b604051808273ffffffffffffffffffffffffffffffffffffffff1673ffffffffffffffffffffffffffffffffffffffff16815260200191505060405180910390f35b3480156103b757600080fd5b506103e4600480360360208110156103ce57600080fd5b8101908080359060200190929190505050610c35565b604051808573ffffffffffffffffffffffffffffffffffffffff1673ffffffffffffffffffffffffffffffffffffffff16815260200184815260200180602001838152602001828103825284818151815260200191508051906020019080838360005b83811015610462578082015181840152602081019050610447565b50505050905090810190601f16801561048f5780820380516001836020036101000a031916815260200191505b509550505050505060405180910390f35b3480156104ac57600080fd5b506104b5610d2c565b604051808215151515815260200191505060405180910390f35b3480156104db57600080fd5b50610528600480360360408110156104f257600080fd5b8101908080359060200190929190803573ffffffffffffffffffffffffffffffffffffffff169060200190929190505050610d3e565b005b34801561053657600080fd5b5061053f611046565b005b34801561054d57600080fd5b5061055661116c565b6040518082815260200191505060405180910390f35b34801561057857600080fd5b50610581611172565b005b34801561058f57600080fd5b506105d2600480360360208110156105a657600080fd5b81019080803573ffffffffffffffffffffffffffffffffffffffff1690602001909291905050506111d9565b005b6000600260009054906101000a900473ffffffffffffffffffffffffffffffffffffffff1673ffffffffffffffffffffffffffffffffffffffff163373ffffffffffffffffffffffffffffffffffffffff161415156106c1576040517f08c379a000000000000000000000000000000000000000000000000000000000815260040180806020018281038252602c8152602001807f596f7520617265206e6f7420617574686f72697a656420666f7220746869732081526020017f7472616e73616374696f6e2e000000000000000000000000000000000000000081525060400191505060405180910390fd5b600260009054906101000a900473ffffffffffffffffffffffffffffffffffffffff1673ffffffffffffffffffffffffffffffffffffffff168273ffffffffffffffffffffffffffffffffffffffff1614156107205760019050610725565b600090505b919050565b6000600260009054906101000a900473ffffffffffffffffffffffffffffffffffffffff1673ffffffffffffffffffffffffffffffffffffffff163373ffffffffffffffffffffffffffffffffffffffff16141515610817576040517f08c379a000000000000000000000000000000000000000000000000000000000815260040180806020018281038252602c8152602001807f596f7520617265206e6f7420617574686f72697a656420666f7220746869732081526020017f7472616e73616374696f6e2e000000000000000000000000000000000000000081525060400191505060405180910390fd5b600154905090565b600260009054906101000a900473ffffffffffffffffffffffffffffffffffffffff1673ffffffffffffffffffffffffffffffffffffffff163373ffffffffffffffffffffffffffffffffffffffff1614151561090a576040517f08c379a000000000000000000000000000000000000000000000000000000000815260040180806020018281038252602c8152602001807f596f7520617265206e6f7420617574686f72697a656420666f7220746869732081526020017f7472616e73616374696f6e2e000000000000000000000000000000000000000081525060400191505060405180910390fd5b6001600460008373ffffffffffffffffffffffffffffffffffffffff1673ffffffffffffffffffffffffffffffffffffffff16815260200190815260200160002060006101000a81548160ff02191690831515021790555050565b600260009054906101000a900473ffffffffffffffffffffffffffffffffffffffff1673ffffffffffffffffffffffffffffffffffffffff163373ffffffffffffffffffffffffffffffffffffffff16141515610a50576040517f08c379a000000000000000000000000000000000000000000000000000000000815260040180806020018281038252602c8152602001807f596f7520617265206e6f7420617574686f72697a656420666f7220746869732081526020017f7472616e73616374696f6e2e000000000000000000000000000000000000000081525060400191505060405180910390fd5b60008090505b600380549050811015610c0c577f74980ac09199290055e0cd36402abc49b1b50fe37e430bef022d9889012978b4600382815481101515610a9357fe5b906000526020600020906004020160000160009054906101000a900473ffffffffffffffffffffffffffffffffffffffff16600383815481101515610ad457fe5b906000526020600020906004020160010154600384815481101515610af557fe5b9060005260206000209060040201600201600385815481101515610b1557fe5b906000526020600020906004020160030154604051808573ffffffffffffffffffffffffffffffffffffffff1673ffffffffffffffffffffffffffffffffffffffff16815260200184815260200180602001838152602001828103825284818154600181600116156101000203166002900481526020019150805460018160011615610100020316600290048015610bee5780601f10610bc357610100808354040283529160200191610bee565b820191906000526020600020905b815481529060010190602001808311610bd157829003601f168201915b50509550505050505060405180910390a18080600101915050610a56565b50565b600260009054906101000a900473ffffffffffffffffffffffffffffffffffffffff1681565b600381815481101515610c4457fe5b90600052602060002090600402016000915090508060000160009054906101000a900473ffffffffffffffffffffffffffffffffffffffff1690806001015490806002018054600181600116156101000203166002900480601f016020809104026020016040519081016040528092919081815260200182805460018160011615610100020316600290048015610d1c5780601f10610cf157610100808354040283529160200191610d1c565b820191906000526020600020905b815481529060010190602001808311610cff57829003601f168201915b5050505050908060030154905084565b6000809054906101000a900460ff1681565b60011515600460003373ffffffffffffffffffffffffffffffffffffffff1673ffffffffffffffffffffffffffffffffffffffff16815260200190815260200160002060009054906101000a900460ff161515141515610e2c576040517f08c379a000000000000000000000000000000000000000000000000000000000815260040180806020018281038252602f8152602001807f596f7520617265206e6f7420616c6c6f77656420746f2077697468647261772081526020017f66756e64732e20476f204177617921000000000000000000000000000000000081525060400191505060405180910390fd5b7e29c0b4d760ad1c766c10bcd447eb6426e49a6f1aab829f0611fc7476f1c293338284604051808473ffffffffffffffffffffffffffffffffffffffff1673ffffffffffffffffffffffffffffffffffffffff1681526020018373ffffffffffffffffffffffffffffffffffffffff1673ffffffffffffffffffffffffffffffffffffffff168152602001828152602001935050505060405180910390a18073ffffffffffffffffffffffffffffffffffffffff166108fc839081150290604051600060405180830381858888f19350505050158015610f10573d6000803e3d6000fd5b5081600160008282540392505081905550610f2961131f565b6080604051908101604052808373ffffffffffffffffffffffffffffffffffffffff1681526020018481526020016040805190810160405280600a81526020017f5769746864726177616c0000000000000000000000000000000000000000000081525081526020014381525090506003819080600181540180825580915050906001820390600052602060002090600402016000909192909190915060008201518160000160006101000a81548173ffffffffffffffffffffffffffffffffffffffff021916908373ffffffffffffffffffffffffffffffffffffffff16021790555060208201518160010155604082015181600201908051906020019061103392919061135e565b5060608201518160030155505050505050565b600260009054906101000a900473ffffffffffffffffffffffffffffffffffffffff1673ffffffffffffffffffffffffffffffffffffffff163373ffffffffffffffffffffffffffffffffffffffff16141515611131576040517f08c379a000000000000000000000000000000000000000000000000000000000815260040180806020018281038252602c8152602001807f596f7520617265206e6f7420617574686f72697a656420666f7220746869732081526020017f7472616e73616374696f6e2e000000000000000000000000000000000000000081525060400191505060405180910390fd5b600260009054906101000a900473ffffffffffffffffffffffffffffffffffffffff1673ffffffffffffffffffffffffffffffffffffffff16ff5b60015481565b600460003373ffffffffffffffffffffffffffffffffffffffff1673ffffffffffffffffffffffffffffffffffffffff16815260200190815260200160002060009054906101000a900460ff166000806101000a81548160ff021916908315150217905550565b600260009054906101000a900473ffffffffffffffffffffffffffffffffffffffff1673ffffffffffffffffffffffffffffffffffffffff163373ffffffffffffffffffffffffffffffffffffffff161415156112c4576040517f08c379a000000000000000000000000000000000000000000000000000000000815260040180806020018281038252602c8152602001807f596f7520617265206e6f7420617574686f72697a656420666f7220746869732081526020017f7472616e73616374696f6e2e000000000000000000000000000000000000000081525060400191505060405180910390fd5b6000600460008373ffffffffffffffffffffffffffffffffffffffff1673ffffffffffffffffffffffffffffffffffffffff16815260200190815260200160002060006101000a81548160ff02191690831515021790555050565b608060405190810160405280600073ffffffffffffffffffffffffffffffffffffffff1681526020016000815260200160608152602001600081525090565b828054600181600116156101000203166002900490600052602060002090601f016020900481019282601f1061139f57805160ff19168380011785556113cd565b828001600101855582156113cd579182015b828111156113cc5782518255916020019190600101906113b1565b5b5090506113da91906113de565b5090565b61140091905b808211156113fc5760008160009055506001016113e4565b5090565b9056fea165627a7a72305820967d059a72993e586b108606a4a905c079ff04f106f1d5ec3c1b53aa33a26e700029a165627a7a72305820daf44f73a599d3df0e8c0bcdc3b476c2936f4e5e522efc23ccf3d0b16655d6880029",
  "source": "pragma solidity ^0.5.0;\r\n\r\n\r\n/**\r\n * \r\n * SimpleWalletFactory is a factory for creating wallets that user can use according to\r\n * there own will.\r\n * \r\n */\r\n\r\ncontract SimpleWalletFactory{\r\n    \r\n    SimpleWallet wallet;\r\n    address appOwner ;\r\n    uint public balance;\r\n    \r\n    address payable private  walletAddress ;\r\n    \r\n    event GET_WALLET_DETAILS(address payable[] );\r\n    \r\n    event GET_CREATED_WALLET_ADDRESS(address payable);\r\n    \r\n    /**\r\n     * Mapping to easily fetch the list of Wallets a member is attached to\r\n     * @param   {key}   Key is the address of a member\r\n     * @param   {value} Value is the array of wallets a member is part of. \r\n     * \r\n     */\r\n    mapping(address=>address payable[] ) public walletDetails;\r\n    \r\n    \r\n    /**\r\n     * \r\n     *  Mapping to keep the Key values pair to check if the user is \r\n        member of a particular wallet.\r\n     *\r\n     */\r\n    \r\n    constructor() public{\r\n        appOwner = msg.sender;\r\n    }\r\n    \r\n    function() external payable{\r\n        balance = msg.value;\r\n    }\r\n    \r\n    \r\n    function deploySimpleWallet() public{\r\n        wallet =  new SimpleWallet();\r\n         walletAddress = address(wallet);\r\n        \r\n        // //Add message sender to the list\r\n        // walletDetails[msg.sender].push(walletAddress);\r\n        \r\n        emit GET_CREATED_WALLET_ADDRESS(walletAddress);\r\n    }\r\n    \r\n    function getUserWallets(address _userAddress) public{\r\n        require(msg.sender == _userAddress,'You can only see your wallet Details');\r\n        emit GET_WALLET_DETAILS(walletDetails[_userAddress]);\r\n    }\r\n    \r\n}\r\n\r\ncontract SimpleWallet{\r\n    \r\n    \r\n    struct WalletStatement{\r\n        address trxAddress;\r\n        uint amount;\r\n        string mode;\r\n        uint block;\r\n    }\r\n    \r\n    bool public withdrawalAllowed;   \r\n    uint public balance;\r\n    address payable public owner;\r\n    \r\n    WalletStatement[] public statement;\r\n    \r\n    constructor() public{\r\n       // owner = msg.sender;\r\n        owner = tx.origin;\r\n        //allowAccessToWallet(owner);\r\n        walletMembers[owner] = true;\r\n    }\r\n    \r\n\r\n    modifier onlyOwner{\r\n        require(msg.sender == owner,\"You are not authorized for this transaction.\");\r\n        _;\r\n    }\r\n    \r\n    modifier onlyAuthorized{\r\n        require(walletMembers[msg.sender] == true, \"You are not allowed to withdraw funds. Go Away!\");\r\n        _;\r\n    }\r\n    \r\n    mapping(address => bool) walletMembers;\r\n    \r\n    event deposit(address _sender, uint _amount);\r\n    \r\n    event withdrawal(address _sender, address _beneficiary, uint _amount);\r\n    \r\n    event transaction(address _trxAddress, uint _amount, string mode, uint blockNumber);\r\n    \r\n    /**\r\n     * fallback function which always fires if only Transaction is being sent to the Wallet.\r\n     */\r\n    function() external payable{\r\n        balance+=msg.value;\r\n        WalletStatement memory thisStatement = WalletStatement({\r\n            trxAddress : msg.sender,\r\n            amount: msg.value,\r\n            mode:'Deposit',\r\n            block : block.number\r\n        });\r\n        \r\n        statement.push(thisStatement);\r\n        emit deposit(msg.sender, msg.value);\r\n    }\r\n    \r\n    \r\n    /**\r\n     * sendFunds allow authorized user to send funds from one account to the other.\r\n     */\r\n    function sendFunds(uint _amount, address payable _receiver) public onlyAuthorized{\r\n        //Check if the sender is allowed to send amount to anyone\r\n        // require(walletMembers[msg.sender] = true);\r\n        \r\n        //only authorized user will be able to send the amount.\r\n        emit withdrawal(msg.sender, _receiver, _amount);\r\n        \r\n        _receiver.transfer(_amount);\r\n        balance-= _amount;\r\n        \r\n        WalletStatement memory thisStatement = WalletStatement({\r\n            trxAddress : _receiver,\r\n            amount: _amount,\r\n            mode:'Withdrawal',\r\n            block : block.number\r\n        });\r\n        \r\n        statement.push(thisStatement);\r\n    }\r\n    \r\n    \r\n    function allowAccessToWallet(address _member) public onlyOwner{\r\n        walletMembers[_member] = true;\r\n    }\r\n    \r\n    \r\n    function disAllowAccessToWallet(address _member) public onlyOwner{\r\n        walletMembers[_member] = false;\r\n    }\r\n    \r\n    function checkAccess() public{\r\n        withdrawalAllowed =  walletMembers[msg.sender];\r\n    }\r\n    \r\n    function getBalance() public onlyOwner returns(uint){\r\n        return balance;\r\n    }\r\n    \r\n    function isAllowedToSend(address _candidate) public onlyOwner returns(bool) {\r\n        if(_candidate == owner){\r\n            return true;\r\n        }else{\r\n            return false;\r\n        }\r\n    }\r\n    \r\n    function killWallet() public onlyOwner{\r\n        selfdestruct(owner);\r\n    }\r\n    \r\n    function getTransactions() public onlyOwner{\r\n        for(uint counter=0; counter<statement.length; counter++){\r\n            emit transaction(statement[counter].trxAddress, statement[counter].amount,statement[counter].mode, statement[counter].block);\r\n        }\r\n    }\r\n    \r\n}",
  "sourcePath": "C:/Users/E9968575/OneDrive - Eaton/Innovation/Experiments/Prepaid-Ethereum-Wallet/contracts/SimpleWallet.sol",
  "compiler": {
    "name": "solc",
    "version": "0.5.0+commit.1d4f565a.Emscripten.clang"
  },
  "schemaVersion": "3.0.9",
  "updatedAt": "2019-05-16T06:50:03.400Z",
  "devdoc": {
    "methods": {}
  },
  "userdoc": {
    "methods": {
      "constructor": "\r Mapping to keep the Key values pair to check if the user is \r member of a particular wallet.\r      "
    },
    "notice": "\r SimpleWalletFactory is a factory for creating wallets that user can use according to\r there own will.\r \r"
  }
}